:020000020000FC
:040000000C94AC00B0
:040034000C947C00AC
:1000F8000F930FB70F9300910001002319F00A9591
:10010800009300010F910FBF0F9118951F9310E0F6
:10011800109389001AE01093880011271093850026
:1001280010938400109380001AE0109381001091BE
:100138006F00126010936F001F91089500930001E3
:10014800089500930001009100010023E1F708954C
:100158000FEF0DBF00E10EBF0E948A0078941FEFD9
:100168001AB911E005E01BB9111F05E00E94A500AE
:100178001BB9059B0C94B70010E01BB90C94C20086
:00000001FF
